{
  "_format": "hh-sol-artifact-1",
  "contractName": "WalletUSDT",
  "sourceName": "contracts/WalletUSDT.sol",
  "abi": [
    {
      "inputs": [
        {
          "internalType": "address",
          "name": "_root_wallet",
          "type": "address"
        },
        {
          "internalType": "address",
          "name": "_owner",
          "type": "address"
        },
        {
          "internalType": "address",
          "name": "_usdt",
          "type": "address"
        }
      ],
      "stateMutability": "nonpayable",
      "type": "constructor"
    },
    {
      "anonymous": false,
      "inputs": [
        {
          "indexed": true,
          "internalType": "address",
          "name": "_from",
          "type": "address"
        },
        {
          "indexed": false,
          "internalType": "uint256",
          "name": "_amount",
          "type": "uint256"
        }
      ],
      "name": "DepositUSDT",
      "type": "event"
    },
    {
      "anonymous": false,
      "inputs": [
        {
          "indexed": true,
          "internalType": "address",
          "name": "_to",
          "type": "address"
        },
        {
          "indexed": false,
          "internalType": "uint256",
          "name": "_amount",
          "type": "uint256"
        }
      ],
      "name": "Withdraw",
      "type": "event"
    },
    {
      "inputs": [],
      "name": "owner",
      "outputs": [
        {
          "internalType": "address",
          "name": "",
          "type": "address"
        }
      ],
      "stateMutability": "view",
      "type": "function"
    },
    {
      "inputs": [
        {
          "internalType": "uint256",
          "name": "_amount",
          "type": "uint256"
        }
      ],
      "name": "pay",
      "outputs": [],
      "stateMutability": "payable",
      "type": "function"
    },
    {
      "inputs": [],
      "name": "root_wallet",
      "outputs": [
        {
          "internalType": "address",
          "name": "",
          "type": "address"
        }
      ],
      "stateMutability": "view",
      "type": "function"
    },
    {
      "inputs": [],
      "name": "usdt",
      "outputs": [
        {
          "internalType": "contract non_standard_IERC20",
          "name": "",
          "type": "address"
        }
      ],
      "stateMutability": "view",
      "type": "function"
    },
    {
      "inputs": [],
      "name": "withdrawAll",
      "outputs": [],
      "stateMutability": "nonpayable",
      "type": "function"
    }
  ],
  "bytecode": "0x608060405234801561001057600080fd5b5060405161093a38038061093a83398181016040528101906100329190610111565b816000806101000a81548173ffffffffffffffffffffffffffffffffffffffff021916908373ffffffffffffffffffffffffffffffffffffffff16021790555082600160006101000a81548173ffffffffffffffffffffffffffffffffffffffff021916908373ffffffffffffffffffffffffffffffffffffffff16021790555080600260006101000a81548173ffffffffffffffffffffffffffffffffffffffff021916908373ffffffffffffffffffffffffffffffffffffffff1602179055505050506101a9565b60008151905061010b81610192565b92915050565b60008060006060848603121561012657600080fd5b6000610134868287016100fc565b9350506020610145868287016100fc565b9250506040610156868287016100fc565b9150509250925092565b600061016b82610172565b9050919050565b600073ffffffffffffffffffffffffffffffffffffffff82169050919050565b61019b81610160565b81146101a657600080fd5b50565b610782806101b86000396000f3fe60806040526004361061004a5760003560e01c80632f48ab7d1461004f578063853828b61461007a5780638da5cb5b14610091578063c290d691146100bc578063fd3f992c146100d8575b600080fd5b34801561005b57600080fd5b50610064610103565b604051610071919061066e565b60405180910390f35b34801561008657600080fd5b5061008f610129565b005b34801561009d57600080fd5b506100a66103de565b6040516100b391906105f3565b60405180910390f35b6100d660048036038101906100d19190610534565b610402565b005b3480156100e457600080fd5b506100ed6104e4565b6040516100fa91906105f3565b60405180910390f35b600260009054906101000a900473ffffffffffffffffffffffffffffffffffffffff1681565b60008054906101000a900473ffffffffffffffffffffffffffffffffffffffff1673ffffffffffffffffffffffffffffffffffffffff163373ffffffffffffffffffffffffffffffffffffffff1614806101d05750600160009054906101000a900473ffffffffffffffffffffffffffffffffffffffff1673ffffffffffffffffffffffffffffffffffffffff163373ffffffffffffffffffffffffffffffffffffffff16145b61020f576040517f08c379a000000000000000000000000000000000000000000000000000000000815260040161020690610689565b60405180910390fd5b6000600260009054906101000a900473ffffffffffffffffffffffffffffffffffffffff1673ffffffffffffffffffffffffffffffffffffffff166370a08231306040518263ffffffff1660e01b815260040161026c91906105f3565b60206040518083038186803b15801561028457600080fd5b505afa158015610298573d6000803e3d6000fd5b505050506040513d601f19601f820116820180604052508101906102bc919061055d565b9050600260009054906101000a900473ffffffffffffffffffffffffffffffffffffffff1673ffffffffffffffffffffffffffffffffffffffff1663a9059cbb60008054906101000a900473ffffffffffffffffffffffffffffffffffffffff16836040518363ffffffff1660e01b815260040161033b929190610645565b600060405180830381600087803b15801561035557600080fd5b505af1158015610369573d6000803e3d6000fd5b5050505060008054906101000a900473ffffffffffffffffffffffffffffffffffffffff1673ffffffffffffffffffffffffffffffffffffffff167f884edad9ce6fa2440d8a54cc123490eb96d2768479d49ff9c7366125a9424364826040516103d391906106a9565b60405180910390a250565b60008054906101000a900473ffffffffffffffffffffffffffffffffffffffff1681565b600260009054906101000a900473ffffffffffffffffffffffffffffffffffffffff1673ffffffffffffffffffffffffffffffffffffffff166323b872dd3330846040518463ffffffff1660e01b81526004016104619392919061060e565b600060405180830381600087803b15801561047b57600080fd5b505af115801561048f573d6000803e3d6000fd5b505050503373ffffffffffffffffffffffffffffffffffffffff167f6fc45202ec901c0adc990731122c99401bfa9de3762ec01320153f139e128e0c826040516104d991906106a9565b60405180910390a250565b600160009054906101000a900473ffffffffffffffffffffffffffffffffffffffff1681565b60008135905061051981610735565b92915050565b60008151905061052e81610735565b92915050565b60006020828403121561054657600080fd5b60006105548482850161050a565b91505092915050565b60006020828403121561056f57600080fd5b600061057d8482850161051f565b91505092915050565b61058f816106d5565b82525050565b61059e81610711565b82525050565b60006105b16011836106c4565b91507f5065726d697373696f6e2064656e6965640000000000000000000000000000006000830152602082019050919050565b6105ed81610707565b82525050565b60006020820190506106086000830184610586565b92915050565b60006060820190506106236000830186610586565b6106306020830185610586565b61063d60408301846105e4565b949350505050565b600060408201905061065a6000830185610586565b61066760208301846105e4565b9392505050565b60006020820190506106836000830184610595565b92915050565b600060208201905081810360008301526106a2816105a4565b9050919050565b60006020820190506106be60008301846105e4565b92915050565b600082825260208201905092915050565b60006106e0826106e7565b9050919050565b600073ffffffffffffffffffffffffffffffffffffffff82169050919050565b6000819050919050565b600061071c82610723565b9050919050565b600061072e826106e7565b9050919050565b61073e81610707565b811461074957600080fd5b5056fea2646970667358221220f0909aee90d3eefecc3376d43b92b71dd6e51118fb28e568913aff7c346e6d2664736f6c63430008000033",
  "linkReferences": {},
  "deployedLinkReferences": {}
}