{
  "_format": "hh-sol-artifact-1",
  "contractName": "WalletBuilder",
  "sourceName": "contracts/WalletBuilder.sol",
  "abi": [
    {
      "inputs": [
        {
          "internalType": "address",
          "name": "_usdt",
          "type": "address"
        }
      ],
      "stateMutability": "nonpayable",
      "type": "constructor"
    },
    {
      "anonymous": false,
      "inputs": [
        {
          "indexed": false,
          "internalType": "address",
          "name": "_newWalletAddress",
          "type": "address"
        },
        {
          "indexed": false,
          "internalType": "uint256",
          "name": "_createdTimestamp",
          "type": "uint256"
        }
      ],
      "name": "CreateWallet",
      "type": "event"
    },
    {
      "inputs": [
        {
          "internalType": "address",
          "name": "_newAdmin",
          "type": "address"
        }
      ],
      "name": "changeAdmin",
      "outputs": [],
      "stateMutability": "nonpayable",
      "type": "function"
    },
    {
      "inputs": [],
      "name": "createWallet",
      "outputs": [
        {
          "internalType": "address",
          "name": "",
          "type": "address"
        }
      ],
      "stateMutability": "nonpayable",
      "type": "function"
    },
    {
      "inputs": [],
      "name": "getOwner",
      "outputs": [
        {
          "internalType": "address",
          "name": "",
          "type": "address"
        }
      ],
      "stateMutability": "view",
      "type": "function"
    },
    {
      "inputs": [],
      "name": "owner",
      "outputs": [
        {
          "internalType": "address",
          "name": "",
          "type": "address"
        }
      ],
      "stateMutability": "view",
      "type": "function"
    },
    {
      "inputs": [],
      "name": "usdt",
      "outputs": [
        {
          "internalType": "address",
          "name": "",
          "type": "address"
        }
      ],
      "stateMutability": "view",
      "type": "function"
    },
    {
      "inputs": [
        {
          "internalType": "address",
          "name": "",
          "type": "address"
        }
      ],
      "name": "walletsCreatedTime",
      "outputs": [
        {
          "internalType": "uint256",
          "name": "",
          "type": "uint256"
        }
      ],
      "stateMutability": "view",
      "type": "function"
    },
    {
      "inputs": [
        {
          "internalType": "address",
          "name": "_from",
          "type": "address"
        }
      ],
      "name": "withdraw",
      "outputs": [],
      "stateMutability": "nonpayable",
      "type": "function"
    }
  ],
  "bytecode": "0x608060405234801561001057600080fd5b506040516111d03803806111d0833981810160405281019061003291906100ce565b80600260006101000a81548173ffffffffffffffffffffffffffffffffffffffff021916908373ffffffffffffffffffffffffffffffffffffffff160217905550336000806101000a81548173ffffffffffffffffffffffffffffffffffffffff021916908373ffffffffffffffffffffffffffffffffffffffff16021790555050610140565b6000815190506100c881610129565b92915050565b6000602082840312156100e057600080fd5b60006100ee848285016100b9565b91505092915050565b600061010282610109565b9050919050565b600073ffffffffffffffffffffffffffffffffffffffff82169050919050565b610132816100f7565b811461013d57600080fd5b50565b6110818061014f6000396000f3fe608060405234801561001057600080fd5b506004361061007d5760003560e01c806351cff8d91161005b57806351cff8d9146100ee578063893d20e81461010a5780638da5cb5b146101285780638f283970146101465761007d565b806311ebbf241461008257806312a727f1146100a05780632f48ab7d146100d0575b600080fd5b61008a610162565b60405161009791906105f7565b60405180910390f35b6100ba60048036038101906100b59190610570565b6102fb565b6040516100c79190610692565b60405180910390f35b6100d8610313565b6040516100e591906105f7565b60405180910390f35b61010860048036038101906101039190610570565b610339565b005b610112610430565b60405161011f91906105f7565b60405180910390f35b610130610459565b60405161013d91906105f7565b60405180910390f35b610160600480360381019061015b9190610570565b61047d565b005b60008060009054906101000a900473ffffffffffffffffffffffffffffffffffffffff1673ffffffffffffffffffffffffffffffffffffffff163373ffffffffffffffffffffffffffffffffffffffff16146101f3576040517f08c379a00000000000000000000000000000000000000000000000000000000081526004016101ea90610672565b60405180910390fd5b60003060008054906101000a900473ffffffffffffffffffffffffffffffffffffffff16600260009054906101000a900473ffffffffffffffffffffffffffffffffffffffff166040516102469061054e565b61025293929190610612565b604051809103906000f08015801561026e573d6000803e3d6000fd5b509050600042905080600160008473ffffffffffffffffffffffffffffffffffffffff1673ffffffffffffffffffffffffffffffffffffffff168152602001908152602001600020819055507fae872e3635caff3b3832933d9806fbb87f4234a74ecee890a2fe85574546caee82826040516102eb929190610649565b60405180910390a1819250505090565b60016020528060005260406000206000915090505481565b600260009054906101000a900473ffffffffffffffffffffffffffffffffffffffff1681565b60008054906101000a900473ffffffffffffffffffffffffffffffffffffffff1673ffffffffffffffffffffffffffffffffffffffff163373ffffffffffffffffffffffffffffffffffffffff16146103c7576040517f08c379a00000000000000000000000000000000000000000000000000000000081526004016103be90610672565b60405180910390fd5b60008190508073ffffffffffffffffffffffffffffffffffffffff1663853828b66040518163ffffffff1660e01b8152600401600060405180830381600087803b15801561041457600080fd5b505af1158015610428573d6000803e3d6000fd5b505050505050565b60008060009054906101000a900473ffffffffffffffffffffffffffffffffffffffff16905090565b60008054906101000a900473ffffffffffffffffffffffffffffffffffffffff1681565b60008054906101000a900473ffffffffffffffffffffffffffffffffffffffff1673ffffffffffffffffffffffffffffffffffffffff163373ffffffffffffffffffffffffffffffffffffffff161461050b576040517f08c379a000000000000000000000000000000000000000000000000000000000815260040161050290610672565b60405180910390fd5b806000806101000a81548173ffffffffffffffffffffffffffffffffffffffff021916908373ffffffffffffffffffffffffffffffffffffffff16021790555050565b61093a8061071283390190565b60008135905061056a816106fa565b92915050565b60006020828403121561058257600080fd5b60006105908482850161055b565b91505092915050565b6105a2816106be565b82525050565b60006105b56011836106ad565b91507f5065726d697373696f6e2064656e6965640000000000000000000000000000006000830152602082019050919050565b6105f1816106f0565b82525050565b600060208201905061060c6000830184610599565b92915050565b60006060820190506106276000830186610599565b6106346020830185610599565b6106416040830184610599565b949350505050565b600060408201905061065e6000830185610599565b61066b60208301846105e8565b9392505050565b6000602082019050818103600083015261068b816105a8565b9050919050565b60006020820190506106a760008301846105e8565b92915050565b600082825260208201905092915050565b60006106c9826106d0565b9050919050565b600073ffffffffffffffffffffffffffffffffffffffff82169050919050565b6000819050919050565b610703816106be565b811461070e57600080fd5b5056fe608060405234801561001057600080fd5b5060405161093a38038061093a83398181016040528101906100329190610111565b816000806101000a81548173ffffffffffffffffffffffffffffffffffffffff021916908373ffffffffffffffffffffffffffffffffffffffff16021790555082600160006101000a81548173ffffffffffffffffffffffffffffffffffffffff021916908373ffffffffffffffffffffffffffffffffffffffff16021790555080600260006101000a81548173ffffffffffffffffffffffffffffffffffffffff021916908373ffffffffffffffffffffffffffffffffffffffff1602179055505050506101a9565b60008151905061010b81610192565b92915050565b60008060006060848603121561012657600080fd5b6000610134868287016100fc565b9350506020610145868287016100fc565b9250506040610156868287016100fc565b9150509250925092565b600061016b82610172565b9050919050565b600073ffffffffffffffffffffffffffffffffffffffff82169050919050565b61019b81610160565b81146101a657600080fd5b50565b610782806101b86000396000f3fe60806040526004361061004a5760003560e01c80632f48ab7d1461004f578063853828b61461007a5780638da5cb5b14610091578063c290d691146100bc578063fd3f992c146100d8575b600080fd5b34801561005b57600080fd5b50610064610103565b604051610071919061066e565b60405180910390f35b34801561008657600080fd5b5061008f610129565b005b34801561009d57600080fd5b506100a66103de565b6040516100b391906105f3565b60405180910390f35b6100d660048036038101906100d19190610534565b610402565b005b3480156100e457600080fd5b506100ed6104e4565b6040516100fa91906105f3565b60405180910390f35b600260009054906101000a900473ffffffffffffffffffffffffffffffffffffffff1681565b60008054906101000a900473ffffffffffffffffffffffffffffffffffffffff1673ffffffffffffffffffffffffffffffffffffffff163373ffffffffffffffffffffffffffffffffffffffff1614806101d05750600160009054906101000a900473ffffffffffffffffffffffffffffffffffffffff1673ffffffffffffffffffffffffffffffffffffffff163373ffffffffffffffffffffffffffffffffffffffff16145b61020f576040517f08c379a000000000000000000000000000000000000000000000000000000000815260040161020690610689565b60405180910390fd5b6000600260009054906101000a900473ffffffffffffffffffffffffffffffffffffffff1673ffffffffffffffffffffffffffffffffffffffff166370a08231306040518263ffffffff1660e01b815260040161026c91906105f3565b60206040518083038186803b15801561028457600080fd5b505afa158015610298573d6000803e3d6000fd5b505050506040513d601f19601f820116820180604052508101906102bc919061055d565b9050600260009054906101000a900473ffffffffffffffffffffffffffffffffffffffff1673ffffffffffffffffffffffffffffffffffffffff1663a9059cbb60008054906101000a900473ffffffffffffffffffffffffffffffffffffffff16836040518363ffffffff1660e01b815260040161033b929190610645565b600060405180830381600087803b15801561035557600080fd5b505af1158015610369573d6000803e3d6000fd5b5050505060008054906101000a900473ffffffffffffffffffffffffffffffffffffffff1673ffffffffffffffffffffffffffffffffffffffff167f884edad9ce6fa2440d8a54cc123490eb96d2768479d49ff9c7366125a9424364826040516103d391906106a9565b60405180910390a250565b60008054906101000a900473ffffffffffffffffffffffffffffffffffffffff1681565b600260009054906101000a900473ffffffffffffffffffffffffffffffffffffffff1673ffffffffffffffffffffffffffffffffffffffff166323b872dd3330846040518463ffffffff1660e01b81526004016104619392919061060e565b600060405180830381600087803b15801561047b57600080fd5b505af115801561048f573d6000803e3d6000fd5b505050503373ffffffffffffffffffffffffffffffffffffffff167f6fc45202ec901c0adc990731122c99401bfa9de3762ec01320153f139e128e0c826040516104d991906106a9565b60405180910390a250565b600160009054906101000a900473ffffffffffffffffffffffffffffffffffffffff1681565b60008135905061051981610735565b92915050565b60008151905061052e81610735565b92915050565b60006020828403121561054657600080fd5b60006105548482850161050a565b91505092915050565b60006020828403121561056f57600080fd5b600061057d8482850161051f565b91505092915050565b61058f816106d5565b82525050565b61059e81610711565b82525050565b60006105b16011836106c4565b91507f5065726d697373696f6e2064656e6965640000000000000000000000000000006000830152602082019050919050565b6105ed81610707565b82525050565b60006020820190506106086000830184610586565b92915050565b60006060820190506106236000830186610586565b6106306020830185610586565b61063d60408301846105e4565b949350505050565b600060408201905061065a6000830185610586565b61066760208301846105e4565b9392505050565b60006020820190506106836000830184610595565b92915050565b600060208201905081810360008301526106a2816105a4565b9050919050565b60006020820190506106be60008301846105e4565b92915050565b600082825260208201905092915050565b60006106e0826106e7565b9050919050565b600073ffffffffffffffffffffffffffffffffffffffff82169050919050565b6000819050919050565b600061071c82610723565b9050919050565b600061072e826106e7565b9050919050565b61073e81610707565b811461074957600080fd5b5056fea2646970667358221220f0909aee90d3eefecc3376d43b92b71dd6e51118fb28e568913aff7c346e6d2664736f6c63430008000033a26469706673582212205215ab0445e8801bd696e3eba7151b90f647208186f748effefdaa4c1dd5cf2964736f6c63430008000033",
  "linkReferences": {},
  "deployedLinkReferences": {}
}